{
  "contractName": "AtomicSwap",
  "abi": [
    {
      "anonymous": false,
      "inputs": [
        {
          "indexed": false,
          "internalType": "uint256",
          "name": "_initTimestamp",
          "type": "uint256"
        },
        {
          "indexed": false,
          "internalType": "uint256",
          "name": "_refundTime",
          "type": "uint256"
        },
        {
          "indexed": false,
          "internalType": "bytes32",
          "name": "_hashedSecret",
          "type": "bytes32"
        },
        {
          "indexed": false,
          "internalType": "address",
          "name": "_participant",
          "type": "address"
        },
        {
          "indexed": false,
          "internalType": "address",
          "name": "_initiator",
          "type": "address"
        },
        {
          "indexed": false,
          "internalType": "uint256",
          "name": "_funds",
          "type": "uint256"
        }
      ],
      "name": "Initiated",
      "type": "event"
    },
    {
      "anonymous": false,
      "inputs": [
        {
          "indexed": false,
          "internalType": "address",
          "name": "_initiator",
          "type": "address"
        },
        {
          "indexed": false,
          "internalType": "address",
          "name": "_participator",
          "type": "address"
        },
        {
          "indexed": false,
          "internalType": "bytes32",
          "name": "_hashedSecret",
          "type": "bytes32"
        },
        {
          "indexed": false,
          "internalType": "uint256",
          "name": "_value",
          "type": "uint256"
        }
      ],
      "name": "Participated",
      "type": "event"
    },
    {
      "anonymous": false,
      "inputs": [
        {
          "indexed": false,
          "internalType": "uint256",
          "name": "_redeemTime",
          "type": "uint256"
        }
      ],
      "name": "Redeemed",
      "type": "event"
    },
    {
      "anonymous": false,
      "inputs": [
        {
          "indexed": false,
          "internalType": "uint256",
          "name": "_refundTime",
          "type": "uint256"
        }
      ],
      "name": "Refunded",
      "type": "event"
    },
    {
      "constant": true,
      "inputs": [
        {
          "internalType": "bytes32",
          "name": "",
          "type": "bytes32"
        }
      ],
      "name": "swaps",
      "outputs": [
        {
          "internalType": "uint256",
          "name": "initTimestamp",
          "type": "uint256"
        },
        {
          "internalType": "uint256",
          "name": "refundTime",
          "type": "uint256"
        },
        {
          "internalType": "bytes32",
          "name": "hashedSecret",
          "type": "bytes32"
        },
        {
          "internalType": "bytes32",
          "name": "secret",
          "type": "bytes32"
        },
        {
          "internalType": "address payable",
          "name": "initiator",
          "type": "address"
        },
        {
          "internalType": "address payable",
          "name": "participant",
          "type": "address"
        },
        {
          "internalType": "uint256",
          "name": "value",
          "type": "uint256"
        },
        {
          "internalType": "bool",
          "name": "emptied",
          "type": "bool"
        },
        {
          "internalType": "enum AtomicSwap.State",
          "name": "state",
          "type": "uint8"
        }
      ],
      "payable": false,
      "stateMutability": "view",
      "type": "function"
    },
    {
      "constant": true,
      "inputs": [
        {
          "internalType": "bytes32",
          "name": "_data",
          "type": "bytes32"
        }
      ],
      "name": "toBytes",
      "outputs": [
        {
          "internalType": "bytes",
          "name": "",
          "type": "bytes"
        }
      ],
      "payable": false,
      "stateMutability": "pure",
      "type": "function"
    },
    {
      "constant": false,
      "inputs": [
        {
          "internalType": "uint256",
          "name": "_refundTime",
          "type": "uint256"
        },
        {
          "internalType": "bytes32",
          "name": "_hashedSecret",
          "type": "bytes32"
        },
        {
          "internalType": "address payable",
          "name": "_participant",
          "type": "address"
        }
      ],
      "name": "initiate",
      "outputs": [],
      "payable": true,
      "stateMutability": "payable",
      "type": "function"
    },
    {
      "constant": false,
      "inputs": [
        {
          "internalType": "uint256",
          "name": "_refundTime",
          "type": "uint256"
        },
        {
          "internalType": "bytes32",
          "name": "_hashedSecret",
          "type": "bytes32"
        },
        {
          "internalType": "address payable",
          "name": "_initiator",
          "type": "address"
        }
      ],
      "name": "participate",
      "outputs": [],
      "payable": true,
      "stateMutability": "payable",
      "type": "function"
    },
    {
      "constant": false,
      "inputs": [
        {
          "internalType": "bytes32",
          "name": "_secret",
          "type": "bytes32"
        },
        {
          "internalType": "bytes32",
          "name": "_hashedSecret",
          "type": "bytes32"
        }
      ],
      "name": "redeem",
      "outputs": [],
      "payable": false,
      "stateMutability": "nonpayable",
      "type": "function"
    },
    {
      "constant": false,
      "inputs": [
        {
          "internalType": "bytes32",
          "name": "_hashedSecret",
          "type": "bytes32"
        }
      ],
      "name": "refund",
      "outputs": [],
      "payable": false,
      "stateMutability": "nonpayable",
      "type": "function"
    }
  ],
  "bytecode": "0x608060405234801561001057600080fd5b50610dfa806100206000396000f3fe6080604052600436106100555760003560e01c80631aa028531461005a578063326cf61c146100b25780637249fbb614610166578063ae052147146101a1578063b31597ad146101f9578063eb84e7f21461023e575b600080fd5b6100b06004803603606081101561007057600080fd5b810190808035906020019092919080359060200190929190803573ffffffffffffffffffffffffffffffffffffffff16906020019092919050505061032f565b005b3480156100be57600080fd5b506100eb600480360360208110156100d557600080fd5b8101908080359060200190929190505050610569565b6040518080602001828103825283818151815260200191508051906020019080838360005b8381101561012b578082015181840152602081019050610110565b50505050905090810190601f1680156101585780820380516001836020036101000a031916815260200191505b509250505060405180910390f35b34801561017257600080fd5b5061019f6004803603602081101561018957600080fd5b8101908080359060200190929190505050610592565b005b6101f7600480360360608110156101b757600080fd5b810190808035906020019092919080359060200190929190803573ffffffffffffffffffffffffffffffffffffffff16906020019092919050505061080c565b005b34801561020557600080fd5b5061023c6004803603604081101561021c57600080fd5b810190808035906020019092919080359060200190929190505050610a6b565b005b34801561024a57600080fd5b506102776004803603602081101561026157600080fd5b8101908080359060200190929190505050610d1d565b604051808a81526020018981526020018881526020018781526020018673ffffffffffffffffffffffffffffffffffffffff1673ffffffffffffffffffffffffffffffffffffffff1681526020018573ffffffffffffffffffffffffffffffffffffffff1673ffffffffffffffffffffffffffffffffffffffff1681526020018481526020018315151515815260200182600281111561031357fe5b60ff168152602001995050505050505050505060405180910390f35b816000600281111561033d57fe5b60008083815260200190815260200160002060070160019054906101000a900460ff16600281111561036b57fe5b1461037557600080fd5b836000808581526020019081526020016000206001018190555042600080858152602001908152602001600020600001819055503360008085815260200190815260200160002060050160006101000a81548173ffffffffffffffffffffffffffffffffffffffff021916908373ffffffffffffffffffffffffffffffffffffffff1602179055508160008085815260200190815260200160002060040160006101000a81548173ffffffffffffffffffffffffffffffffffffffff021916908373ffffffffffffffffffffffffffffffffffffffff16021790555034600080858152602001908152602001600020600601819055508260008085815260200190815260200160002060020181905550600260008085815260200190815260200160002060070160016101000a81548160ff021916908360028111156104b757fe5b02179055507fa8506a11ec0098769a3a6fca95c3909827ae056c93e71bdc9af512a6831e06c482338534604051808573ffffffffffffffffffffffffffffffffffffffff1673ffffffffffffffffffffffffffffffffffffffff1681526020018473ffffffffffffffffffffffffffffffffffffffff1673ffffffffffffffffffffffffffffffffffffffff16815260200183815260200182815260200194505050505060405180910390a150505050565b606081604051602001808281526020019150506040516020818303038152906040529050919050565b8060008082815260200190815260200160002060010154600080838152602001908152602001600020600001540142116105cb57600080fd5b6000151560008083815260200190815260200160002060070160009054906101000a900460ff161515146105fe57600080fd5b60028081111561060a57fe5b60008084815260200190815260200160002060070160019054906101000a900460ff16600281111561063857fe5b14156106d05760008083815260200190815260200160002060050160009054906101000a900473ffffffffffffffffffffffffffffffffffffffff1673ffffffffffffffffffffffffffffffffffffffff166108fc600080858152602001908152602001600020600601549081150290604051600060405180830381858888f193505050501580156106ce573d6000803e3d6000fd5b505b600160028111156106dd57fe5b60008084815260200190815260200160002060070160019054906101000a900460ff16600281111561070b57fe5b14156107a35760008083815260200190815260200160002060040160009054906101000a900473ffffffffffffffffffffffffffffffffffffffff1673ffffffffffffffffffffffffffffffffffffffff166108fc600080858152602001908152602001600020600601549081150290604051600060405180830381858888f193505050501580156107a1573d6000803e3d6000fd5b505b600160008084815260200190815260200160002060070160006101000a81548160ff0219169083151502179055507f3d2a04f53164bedf9a8a46353305d6b2d2261410406df3b41f99ce6489dc003c426040518082815260200191505060405180910390a15050565b816000600281111561081a57fe5b60008083815260200190815260200160002060070160019054906101000a900460ff16600281111561084857fe5b1461085257600080fd5b8360008085815260200190815260200160002060010181905550426000808581526020019081526020016000206000018190555082600080858152602001908152602001600020600201819055508160008085815260200190815260200160002060050160006101000a81548173ffffffffffffffffffffffffffffffffffffffff021916908373ffffffffffffffffffffffffffffffffffffffff1602179055503360008085815260200190815260200160002060040160006101000a81548173ffffffffffffffffffffffffffffffffffffffff021916908373ffffffffffffffffffffffffffffffffffffffff160217905550600160008085815260200190815260200160002060070160016101000a81548160ff0219169083600281111561097a57fe5b021790555034600080858152602001908152602001600020600601819055507f75501a491c11746724d18ea6e5ac6a53864d886d653da6b846fdecda837cf576600080858152602001908152602001600020600001548585853334604051808781526020018681526020018581526020018473ffffffffffffffffffffffffffffffffffffffff1673ffffffffffffffffffffffffffffffffffffffff1681526020018373ffffffffffffffffffffffffffffffffffffffff1673ffffffffffffffffffffffffffffffffffffffff168152602001828152602001965050505050505060405180910390a150505050565b808281610a7782610569565b8051906020012014610a8857600080fd5b6000808381526020019081526020016000206001015460008084815260200190815260200160002060000154014210610ac057600080fd5b6000151560008084815260200190815260200160002060070160009054906101000a900460ff16151514610af357600080fd5b600280811115610aff57fe5b60008085815260200190815260200160002060070160019054906101000a900460ff166002811115610b2d57fe5b1415610bc55760008084815260200190815260200160002060040160009054906101000a900473ffffffffffffffffffffffffffffffffffffffff1673ffffffffffffffffffffffffffffffffffffffff166108fc600080868152602001908152602001600020600601549081150290604051600060405180830381858888f19350505050158015610bc3573d6000803e3d6000fd5b505b60016002811115610bd257fe5b60008085815260200190815260200160002060070160019054906101000a900460ff166002811115610c0057fe5b1415610c985760008084815260200190815260200160002060050160009054906101000a900473ffffffffffffffffffffffffffffffffffffffff1673ffffffffffffffffffffffffffffffffffffffff166108fc600080868152602001908152602001600020600601549081150290604051600060405180830381858888f19350505050158015610c96573d6000803e3d6000fd5b505b600160008085815260200190815260200160002060070160006101000a81548160ff0219169083151502179055507f82498456531a1065f689ba348ce20bda781238c424cf36748dd40bc282831e03426040518082815260200191505060405180910390a1836000808581526020019081526020016000206003018190555050505050565b60006020528060005260406000206000915090508060000154908060010154908060020154908060030154908060040160009054906101000a900473ffffffffffffffffffffffffffffffffffffffff16908060050160009054906101000a900473ffffffffffffffffffffffffffffffffffffffff16908060060154908060070160009054906101000a900460ff16908060070160019054906101000a900460ff1690508956fea265627a7a72315820c15df348e7061b5a09133a93ada00b82637f40b731efd74c0648f3d8deae773b64736f6c634300050c0032",
  "source": "pragma solidity ^0.5.11;\n\ncontract AtomicSwap {\n\n    enum State { Empty, Initiator, Participant }\n\n    struct Swap {\n        uint initTimestamp;\n        uint refundTime;\n        bytes32 hashedSecret;\n        bytes32 secret;\n        address payable initiator;\n        address payable participant;\n        uint256 value;\n        bool emptied;\n        State state;\n    }\n\n    mapping(bytes32 => Swap) public swaps;\n\n\tevent Refunded(uint _refundTime);\n    event Redeemed(uint _redeemTime);\n    event Participated(\n        address _initiator,\n        address _participator,\n        bytes32 _hashedSecret,\n        uint256 _value\n    );\n\tevent Initiated(\n\t\tuint _initTimestamp,\n    \tuint _refundTime,\n    \tbytes32 _hashedSecret,\n    \taddress _participant,\n    \taddress _initiator,\n\t\tuint256 _funds\n\t);\n\n\tmodifier isRefundable(bytes32 _hashedSecret) {\n\t    require(block.timestamp > swaps[_hashedSecret].initTimestamp + swaps[_hashedSecret].refundTime);\n\t    require(swaps[_hashedSecret].emptied == false);\n\t    _;\n\t}\n\n\tmodifier isRedeemable(bytes32 _hashedSecret, bytes32 _secret) {\n\t    require(keccak256(toBytes(_secret)) == _hashedSecret);\n\t\trequire(block.timestamp < swaps[_hashedSecret].initTimestamp + swaps[_hashedSecret].refundTime);\n\t    require(swaps[_hashedSecret].emptied == false);\n\t    _;\n\t}\n\n\tmodifier isInitiator(bytes32 _hashedSecret) {\n\t    require(msg.sender == swaps[_hashedSecret].initiator);\n\t    _;\n\t}\n\n\tmodifier isNotInitiated(bytes32 _hashedSecret) {\n\t    require(swaps[_hashedSecret].state == State.Empty);\n\t    _;\n\t}\n\n    // function stringToBytes(string memory source) public pure returns (bytes memory result){\n    // bytes memory tempEmptyStringTest = bytes(source);\n    //     if (tempEmptyStringTest.length == 0) {\n    //         return 0x0;\n    //     }\n\n    //     assembly {\n    //         result := mload(add(source, 32))\n    //     }\n    // }\n \n    // function calculateRipemdHash(string memory _secret) public pure returns(string memory) {\n    //     return ripemd160(toBytes(stringToBytes(_secret)));\n    // }\n\n    function toBytes(bytes32 _data) public pure returns(bytes memory) {\n        return abi.encode(_data);\n    }\n\n\tfunction initiate (uint _refundTime, bytes32 _hashedSecret, address payable _participant)\n\t    public\n        payable\n\t    isNotInitiated(_hashedSecret)\n\t{\n\t    swaps[_hashedSecret].refundTime = _refundTime;\n\t    swaps[_hashedSecret].initTimestamp = block.timestamp;\n\t    swaps[_hashedSecret].hashedSecret = _hashedSecret;\n\t    swaps[_hashedSecret].participant = _participant;\n\t    swaps[_hashedSecret].initiator = msg.sender;\n        swaps[_hashedSecret].state = State.Initiator;\n        swaps[_hashedSecret].value = msg.value;\n\t\temit Initiated(\n\t\t\tswaps[_hashedSecret].initTimestamp,\n    \t\t_refundTime,\n    \t\t_hashedSecret,\n    \t\t_participant,\n    \t\tmsg.sender,\n\t\t \tmsg.value\n\t\t);\n\t}\n\n    function participate(uint _refundTime, bytes32 _hashedSecret, address payable _initiator)\n        public\n        payable\n        isNotInitiated(_hashedSecret)\n    {\n        swaps[_hashedSecret].refundTime = _refundTime;\n\t    swaps[_hashedSecret].initTimestamp = block.timestamp;\n        swaps[_hashedSecret].participant = msg.sender;\n        swaps[_hashedSecret].initiator = _initiator;\n        swaps[_hashedSecret].value = msg.value;\n        swaps[_hashedSecret].hashedSecret = _hashedSecret;\n        swaps[_hashedSecret].state = State.Participant;\n        emit Participated(_initiator,msg.sender,_hashedSecret,msg.value);\n    }\n\t\n\tfunction redeem(bytes32 _secret, bytes32 _hashedSecret)\n        public\n\t    isRedeemable(_hashedSecret, _secret)\n\t{\n        if(swaps[_hashedSecret].state == State.Participant){\n            swaps[_hashedSecret].initiator.transfer(swaps[_hashedSecret].value);\n        }\n        if(swaps[_hashedSecret].state == State.Initiator){\n            swaps[_hashedSecret].participant.transfer(swaps[_hashedSecret].value);\n        }\n        swaps[_hashedSecret].emptied = true;\n        emit Redeemed(block.timestamp);\n        swaps[_hashedSecret].secret = _secret;\n\t}\n\n\tfunction refund(bytes32 _hashedSecret)\n        public\n\t    isRefundable(_hashedSecret)\n\t{\n\t    if(swaps[_hashedSecret].state == State.Participant){\n            swaps[_hashedSecret].participant.transfer(swaps[_hashedSecret].value);\n        }\n        if(swaps[_hashedSecret].state == State.Initiator){\n            swaps[_hashedSecret].initiator.transfer(swaps[_hashedSecret].value);\n        }\n        swaps[_hashedSecret].emptied = true;\n\t    emit Refunded(block.timestamp);\n\t}\n}",
  "sourcePath": "/home/taras/Workspace/side/ht/contracts/AtomicSwap.sol",
  "compiler": {
    "name": "solc",
    "version": "0.5.12+commit.7709ece9.Emscripten.clang"
  },
  "schemaVersion": "3.0.18",
  "updatedAt": "2019-11-08T12:45:17.700Z",
  "networkType": "ethereum",
  "devdoc": {
    "methods": {}
  },
  "userdoc": {
    "methods": {}
  }
}